S016000055534152545F50726F746F636F6C2E73726563CE
S11300000C942A000C9434000C9434000C943400A6
S11300100C9434000C9434000C9434000C9434008C
S11300200C9434000C9434000C9434000C9434007C
S11300300C9434000C9434000C9434000C9434006C
S11300400C9434000C9434000C9434000C9434005C
S11300500C94340011241FBECFE5D4E0DEBFCDBF25
S11300600E9465000C9492000C940000DC01CB010A
S1130070880F991FAA1FBB1F880F991FAA1FBB1F98
S11300809C01AD01220F331F441F551F60E074E231
S113009084EF90E00E9470002150310910BC29B90E
S11300A08BB182608BB98AB188618AB980B5866860
S11300B080BD08955F9BFECF08955D9BFECF8CB9F4
S11300C008950E945A008CB1089560E875E280E0BA
S11300D090E00E9436000E9461000E945D00FBCF08
S11300E0A1E21A2EAA1BBB1BFD010DC0AA1FBB1F38
S11300F0EE1FFF1FA217B307E407F50720F0A21BAA
S1130100B30BE40BF50B661F771F881F991F1A9416
S113011069F760957095809590959B01AC01BD0140
S10B0120CF010895F894FFCF0C
S9030000FC
