:100000000C942B000C9453000C9453000C9453004C
:100010000C9453000C9453000C9453000C94530014
:100020000C9453000C9453000C9453000C94530004
:100030000C9453000C9453000C9453000C945300F4
:100040000C9453000C9453000C9453000C945300E4
:100050000C945300310111241FBECFE5D4E0DEBF64
:10006000CDBF10E0A0E6B0E0EEE2F3E002C0059004
:100070000D92A43AB107D9F720E0A4EAB0E001C09C
:100080001D92AE3AB207E1F710E0CBE2D0E004C037
:100090002197FE010E945A01CA32D107C9F70E9476
:1000A000DF000C9495010C9400000895DB01CA0157
:1000B000880F991FAA1FBB1F880F991FAA1FBB1F5C
:1000C0009C01AD01220F331F441F551F60E074E2F5
:1000D00084EF90E00E9438012150310910BC29B909
:1000E0008BB182608BB98AB188618AB980B5866824
:1000F00080BD08955F9B02C081E0089580E008956F
:10010000CF93DF93EC01CE010E947A008823D9F3CC
:100110008CB1DF91CF9108955D9BFECF6CB90895AE
:100120000F931F93CF93DF938C01EB0168816623BC
:1001300029F0C8010E948C002196F8CFDF91CF9161
:100140001F910F910895CF93DF93EC01CB014AE00B
:10015000BE010E946001BE01CE010E949000DF91AD
:10016000CF910895CF93DF93EC016DE00E948C0056
:100170006AE0CE010E948C00DF91CF910895CF9369
:10018000DF93EC010E949000CE010E94B200DF914B
:10019000CF910895CF93DF93EC010E94A300CE018D
:1001A0000E94B200DF91CF910895019739F46F3F1B
:1001B0007F4F21F484EA90E00E945500089540E8C2
:1001C00055E260E070E084EA90E00E94560060E64C
:1001D00070E084EA90E00E94BF006FE770E084EA7C
:1001E00090E00E94900062E070E084EA90E00E945B
:1001F000CA0068E870E084EA90E00E94900064E041
:1002000070E084EA90E00E94CA0061E970E084EA4C
:1002100090E00E94900064E070E084EA90E00E9428
:10022000CA006AE970E084EA90E00E94900064E00D
:1002300070E084EA90E00E94CA0084EA90E00E94A4
:100240007A008823D1F3C0E0CA30B9F384EA90E0A1
:100250000E948000C82F682F84EA90E00E948C00E2
:10026000F3CF6FEF7FEF81E090E00E94D50008951B
:10027000A1E21A2EAA1BBB1BFD010DC0AA1FBB1FAA
:10028000EE1FFF1FA217B307E407F50720F0A21B1C
:10029000B30BE40BF50B661F771F881F991F1A9489
:1002A00069F760957095809590959B01AC01BD01B3
:1002B000CF010895EE0FFF1F0590F491E02D0994F2
:1002C000BB274A3031F4992322F4BDE29095819501
:1002D0009F4F0C946C01BB27FB015527AA27880F61
:1002E000991FAA1FA41710F0A41B83955051B9F7AA
:1002F000A05DAA3308F0A95DA193009779F7B11129
:10030000B1931192CB010C948501DC01FC01672FA4
:1003100071917723E1F7329704C07C916D937083DC
:0E0320006291AE17BF07C8F30895F894FFCF9F
:10032E00415652204320436F6D70696C65722044B4
:10033E006174612053697A6573204172653A006970
:10034E006E742020203A20006C6F6E6720203A20B9
:10035E0000666C6F6174203A2000646F75626C6584
:04036E003A20000031
:00000001FF
