S016000055534152545F50726F746F636F6C2E73726563CE
S11300000C942A000C9434000C9434000C943400A6
S11300100C9434000C9434000C9434000C9434008C
S11300200C9434000C9434000C9434000C9434007C
S11300300C9434000C9434000C9434000C9434006C
S11300400C9434000C9434000C9434000C9434005C
S11300500C94340011241FBECFE5D4E0DEBFCDBF25
S11300600E9465000C94AF000C940000A0E0B0E086
S1130070880F991FAA1FBB1F880F991FAA1FBB1F98
S11300809C01AD01220F331F441F551F60E074E231
S113009084EF90E00E946E002150310910BC29B910
S11300A08BB182608BB98AB188618AB980B5866860
S11300B080BD08955F9BFECF08955D9BFECF8CB9F4
S11300C008950E945A008CB1089580E895E20E9438
S11300D036000E9461000E945D00FBCF052E97FB55
S11300E01EF400940E94850057FD07D00E948D00E5
S11300F007FC03D04EF40C94850050954095309540
S113010021953F4F4F4F5F4F08959095809570957F
S113011061957F4F8F4F9F4F0895A1E21A2EAA1B1E
S1130120BB1BFD010DC0AA1FBB1FEE1FFF1FA217A3
S1130130B307E407F50720F0A21BB30BE40BF50BA0
S1130140661F771F881F991F1A9469F76095709529
S1130150809590959B01AC01BD01CF010895F89461
S1050160FFCFCB
S9030000FC
